:08021500020A000002080000CB
:0401B800AB07AA06E1
:1001BC007C007D0A1201638F828E837C007D0AAFE6
:1001CC0003AE02120163EDC4F8540FC868FFECC40F
:0E01DC0054F048FEEF2582FBEE3583FEAF03A4
:0101EA0022F2
:0401F900AF0BAE0A90
:0601FD001201B88FA022E0
:0C000600758910758D3C758BB0D28E2270
:05001600D288D28A220D
:09020300D2AFD2ABD2A8D2AA22DC
:0E01EB001200061200161202031201F980FE25
:0300030002020CEA
:09020C00308E03C28E32D28E3214
:0300130002010DDA
:10010D00C0E0C0F0C083C082C0D075D000C000C0B8
:0B011D0002C003C004C005C006C007FC
:10012800A28EE433750C00F50DC28E750A00750BAE
:10013800001201F9758D3C758BB0E50C450D24FF57
:02014800928E95
:10014A00D007D006D005D004D003D002D000D0D03A
:09015A00D082D083D0F0D0E03255
:03001B000200AA36
:1000AA00C0E0C0F0C083C082C0D075D000C000C01C
:1000BA0002C003C004C005C006C007E509641445B0
:1000CA0008701FF508F509E50B6463450A7006F523
:1000DA000AF50B8008050BE50B7002050A1201F9F7
:1000EA0080080509E50970020508D007D006D00581
:1000FA00D004D003D002D000D0D0D082D083D0F0A8
:03010A00D0E03210
:0300000002001EDD
:0C001E00787FE4F6D8FD75810D020065C6
:10016300BC000BBE0029EF8DF084FFADF022E4CC80
:10017300F875F008EF2FFFEE33FEEC33FCEE9DEC49
:10018300984005FCEE9DFE0FD5F0E9E4CEFD22ED8F
:10019300F8F5F0EE8420D21CFEADF075F008EF2FD9
:1001A300FFED33FD4007985006D5F0F222C398FDCA
:0501B3000FD5F0EA2267
:10002A000201EBE493A3F8E493A34003F68001F200
:10003A0008DFF48029E493A3F85407240CC8C333D7
:10004A00C4540F4420C8834004F456800146F6DFA6
:10005A00E4800B0102040810204080900215E47E1F
:10006A00019360BCA3FF543F30E509541FFEE4939B
:10007A00A360010ECF54C025E060A840B8E493A362
:10008A00FAE493A3F8E493A3C8C582C8CAC583CA8D
:10009A00F0A3C8C582C8CAC583CADFE9DEE780BE45
:01021D0000E0
:00000001FF
