:06011C00010900010800CA
:1000F700EF75F00A84FEEF75F00A84E5F0C454F05A
:020107002EFFC9
:0101090022D3
:060123001200F78FA0227C
:0C000600758910758D63758BC0D28E2239
:05001600D288D28A220D
:09010A00D2AFD2ABD2A8D2AA22D6
:1000D30012000612001612010AAF09120123E508E5
:1000E300B432F6E4F508E509B46305E4F50980E9FB
:0400F300050980E596
:03000300020129CE
:03012900B28E3261
:030013000200AA3E
:1000AA00C0E0C0F0C0D075D000C006C007208E0ED8
:1000BA00750900AF09120123758D63758BC0D007CE
:0900CA00D006D0D0D0F0D0E03215
:03001B00020113CC
:090113000508758D63758BC0327F
:0300000002001EDD
:0C001E00787FE4F6D8FD758109020065CA
:10002A000200D3E493A3F8E493A34003F68001F219
:10003A0008DFF48029E493A3F85407240CC8C333D7
:10004A00C4540F4420C8834004F456800146F6DFA6
:10005A00E4800B010204081020408090011CE47E19
:10006A00019360BCA3FF543F30E509541FFEE4939B
:10007A00A360010ECF54C025E060A840B8E493A362
:10008A00FAE493A3F8E493A3C8C582C8CAC583CA8D
:10009A00F0A3C8C582C8CAC583CADFE9DEE780BE45
:0101220000DC
:00000001FF
